:1000000045C0000060C000005EC000005CC0000091
:100010005AC0000058C0000056C0000054C0000084
:1000200052C0000050C000004EC000004CC0000094
:100030004AC00000FEC2000046C0000044C00000EC
:1000400042C0000040C000003EC000003CC00000B4
:100050003AC0000038C0000036C0000034C00000C4
:1000600032C0000030C000002EC000002CC00000D4
:100070002AC0000028C0000026C0000024C00000E4
:1000800022C0000020C000001EC0000011241FBEBE
:10009000CFEFD0E4DEBFCDBF11E0A0E0B1E0E2E100
:1000A000FDE000E00BBF02C007900D92A431B10744
:1000B000D9F727E0A4E1B1E001C01D92AF34B20747
:1000C000E1F753D124C69CCFCF93DF93EC0104D446
:1000D0002091140130911501CE01820F931F8C3DA8
:1000E00045E0940758F42817390758F4E901CA5E27
:1000F000DE4F909315018093140105C0C0E0D0E05D
:1001000002C0C0E0D0E0AFD4CE01DF91CF9108951E
:100110000895FC010396928381832FEF3FEF348390
:100120002383968385839087878310820895FC01BB
:10013000118610860895CF93DF93FC01DB012181A6
:100140003281E9018A819B8113969C938E93129749
:100150008181928115969C938E9314978A819B81BD
:10016000EC017D836C83E9017B836A837283618305
:100170001996FC93EE93189780818F5F8083DF91AF
:10018000CF910895CF93DF93EB01488159814F3F81
:100190002FEF520731F4DC011796ED91FC9118977F
:1001A00017C0FC013396DC0115962D913C911697F2
:1001B000D9012D913C914217530750F00280F381F1
:1001C000E02DA281B3812D913C9142175307B0F7E6
:1001D000A281B381BB83AA831596DC93CE93149737
:1001E000FD83EC83D383C28399878887FC012081B8
:1001F0002F5F2083DF91CF910895FC01A281B3810D
:100200008481958115969C938E931497A481B581D2
:100210008281938113969C938E931297A085B185CA
:1002200011968D919C9112978E179F0731F48481BE
:10023000958112969C938E931197118610868C91BE
:1002400081508C930895813081F0E1ECF0E0808161
:1002500088618083E2ECF0E080818660808383E3C4
:100260008093C4001092C5000895E9ECF0E080810D
:1002700088618083EAECF0E080818660808383E39C
:100280008093CC001092CD000895813029F48091A4
:10029000C800882384F008958091C0008823ACF4BE
:1002A000A6ECB0E0E0ECF0E08C918093F206808167
:1002B0008823D4F30895AEECB0E0E8ECF0E08C9144
:1002C0008093F20680818823D4F3089580914E07AD
:1002D000813041F018F08230B1F0089581E08093D0
:1002E0004E0708958091C0008823C4F48091C00017
:1002F000807880934D07811103C082E080934E0780
:1003000080E0C3CF08958091C00088233CF48091A1
:10031000C000807880934D0780E0B7CF0895109299
:100320004E07D4DF84E690E01FD4FBCFAF92BF929C
:10033000CF92DF92EF92FF920F93A12CB12CC12CA0
:10034000D12CE12CF12C082F20E030E045E550E0E5
:1003500062E071E08FE891E0A3D10F91FF90EF9000
:10036000DF90CF90BF90AF9008958FEF84B915B80C
:100370001AB88BB980E067DF81E0D8DF84D280E0F3
:1003800090E0089531E1FC013083319722E220832F
:100390003197A3E3A08331976083319770833197BE
:1003A0001082319760E8608331971082319762E064
:1003B0006083319763E06083319764E060833197B5
:1003C00065E06083319766E06083319767E0608322
:1003D000319768E06083319769E06083319760E12D
:1003E000608331973083319732E13083319733E145
:1003F0003083319734E13083319735E13083319761
:1004000036E13083319737E13083319738E13083FB
:10041000319739E13083319730E23083319731E2DF
:10042000308331972083319723E2208331974083B3
:1004300031975083319726E22083319727E220833A
:10044000319728E22083319729E22083319720E3F6
:100450002083319721E320838697089510928900A5
:100460008CE7809388008BE080938100EFE6F0E0DA
:10047000808182608083A0914B07B0914C07CD9121
:10048000CDBFDD91DEBFFF91EF91DF91CF91BF91A5
:10049000AF919F918F917F916F915F914F913F911C
:1004A0002F911F910F91FF90EF90DF90CF90BF9011
:1004B000AF909F908F907F906F905F904F903F9004
:1004C0002F901F900F900FBE0F90089581E0089518
:1004D0000F920FB6F8940F921F9211242F923F9211
:1004E0004F925F926F927F928F929F92AF92BF9244
:1004F000CF92DF92EF92FF920F931F932F933F9330
:100500004F935F936F937F938F939F93AF93BF931B
:10051000CF93DF93EF93FF93A0914B07B0914C07DC
:100520000DB60D920EB60D9270D3A0914B07B091FF
:100530004C07CD91CDBFDD91DEBFFF91EF91DF91F3
:10054000CF91BF91AF919F918F917F916F915F916B
:100550004F913F912F911F910F91FF90EF90DF905E
:10056000CF90BF90AF909F908F907F906F905F9053
:100570004F903F902F901F900F900FBE0F900895B7
:100580000F920FB6F8940F921F9211242F923F9260
:100590004F925F926F927F928F929F92AF92BF9293
:1005A000CF92DF92EF92FF920F931F932F933F937F
:1005B0004F935F936F937F938F939F93AF93BF936B
:1005C000CF93DF93EF93FF93A0914B07B0914C072C
:1005D0000DB60D920EB60D9285D117D3A0914B0793
:1005E000B0914C07CD91CDBFDD91DEBFFF91EF9172
:1005F000DF91CF91BF91AF919F918F917F916F913B
:100600005F914F913F912F911F910F91FF90EF902C
:10061000DF90CF90BF90AF909F908F907F906F9022
:100620005F904F903F902F901F900F900FBE0F90B4
:100630000895A6DF1895CF93DF93EC01E0914B0767
:10064000F0914C07938382838091FB069091FC0686
:10065000C817D90760F460914B0770914C078091DF
:100660001107909112076E5F7F4F8CDD16C060916D
:100670004B0770914C0780911307909114076E5FA0
:100680007F4F80DD8091000190910101C817D9074B
:1006900020F4D0930101C0930001DF91CF91089520
:1006A0004F925F926F927F928F929F92AF92BF9282
:1006B000CF92DF92EF92FF920F931F93CF93DF932E
:1006C0005C014B013A01290181E290E0FDDCEC0183
:1006D000892B09F4C6C0C114D10409F0BEC0C301FE
:1006E000F3DC988F8F8B009719F4CE0111DDB9C020
:1006F000A30165EA70E0F5D29301215031098F8999
:10070000988D3C01620E731E48E050E0B401CE01AA
:100710004996EED218A2102F043008F013E01E8B79
:100720006E0182E0C80ED11CC60101DDCE010C961F
:10073000FEDCD987C88784E090E0811B91099D8702
:100740008C87DB8BCA8BA201B501C3011BDE9983A9
:100750008883E114F10419F0F701D183C0830FB647
:10076000F8940F928091FD068F5F8093FD06809133
:100770004B0790914C07892B69F5D0934C07C09398
:100780004B078091FD068130A1F587E297E0C1DC3F
:1007900080E397E0BEDC89E397E0BBDC82E497E08E
:1007A000B8DC8EE197E0B5DC85E197E0B2DC88E06B
:1007B00097E0AFDC8FEF96E0ACDC8EE197E09093B2
:1007C00014078093130785E197E0909312078093B5
:1007D00011070FC08091F80681110BC0E0914B0703
:1007E000F0914C078689081720F0D0934C07C093EE
:1007F0004B078E899091FA06981710F48093FA06A9
:100800009091F3069F5F9093F3069091F9069817E5
:1008100010F48093F90690E09C01220F331F220F01
:10082000331F220F331F820F931FB601895D984F2C
:1008300082DC0F900FBE8091F806882351F0E09182
:100840004B07F0914C078689801728F441DE81E040
:1008500009C081E007C081E005C0D88ECF8AC601FB
:1008600047CF8FEFDF91CF911F910F91FF90EF90C6
:10087000DF90CF90BF90AF909F908F907F906F90C0
:100880005F904F900895AF92BF92CF92DF92EF9218
:10089000FF920F93A12CB12CC12CD12CE12CF12C67
:1008A00000E020E030E045E550E06EE071E08FECE4
:1008B00095E0F6DE813041F4F8948093F8061092CA
:1008C000FC061092FB06CADD0F91FF90EF90DF90BF
:1008D000CF90BF90AF9008958091F7068F5F80937F
:1008E000F70608950F931F93CF93DF938091F70638
:1008F0008111AFC08091FB069091FC060196909308
:10090000FC068093FB068091FB069091FC06892BE8
:1009100099F5809113079091140720911107309158
:1009200012073093140720931307909312078093B4
:1009300011078091F4068F5F8093F406E09113070E
:10094000F09114078081811107C08FEF9FEF909382
:1009500001018093000110C0E0911307F09114078A
:100960000580F681E02D0680F781E02D828193815C
:1009700090930101809300012091FB063091FC06C9
:1009800080910001909101012817390708F466C091
:10099000E0911307F09114078081882399F0E0918A
:1009A0001307F09114070580F681E02DC681D781E9
:1009B0008A819B812091FB063091FC06281739071C
:1009C000F8F419C08FEF9FEF90930101809300011D
:1009D00045C0E0911307F09114070580F681E02DE2
:1009E000C681D7818A819B812091FB063091FC06CC
:1009F0002817390728F490930101809300012EC035
:100A00008E010E5F1F4FC801F8DB8C899D89892BF1
:100A100019F0CE010C96F1DB2E898091F906821730
:100A200010F42093F90630E0C901880F991F880F50
:100A3000991F880F991F820F931FB801895D984FE6
:100A40007ADBE0911307F091140780818111C1CF07
:100A5000B9CF8091F6068F5F8093F606DF91CF9134
:100A60001F910F910895CF92DF92EF92FF920F9313
:100A70001F93CF93DF930FB6F8940F928091F706F0
:100A800081508093F7068091F70681115FC08091B5
:100A9000FD0681112FC05DC0D7011596ED91FC9127
:100AA0001697C681D781CE010C96A7DB8E010E5F0B
:100AB0001F4FC801A2DB2E898091F906821710F41E
:100AC0002093F90630E0C901880F991F880F991FFC
:100AD000880F991F820F931FB801895D984F2BDBF8
:100AE000E0914B07F0914C079E898689981758F042
:100AF000DC2C09C0D12C0F2EF8E0EF2EF7E0FF2EF2
:100B0000F02DCC24C394F70180818111C5CF809151
:100B1000F606882379F08091F606882391F0E2DECC
:100B20008091F60681508093F6068091F606811139
:100B3000F6CF07C0F1E0DF1621F08091F506813095
:100B400039F41092F506C4DC81E003C080E001C0F6
:100B500080E00F900FBEDF91CF911F910F91FF901A
:100B6000EF90DF90CF900895CF93DF93EC01892B26
:100B700091F0B2DE8091FB069091FC06C80FD91F60
:100B800080914B0790914C07029637DBCE0153DDE5
:100B90006ADF811101C09CDCDF91CF9108950F2E97
:100BA000FFEFEF2EF6E0FF2EF02DC7E2D7E08091A9
:100BB000FE06882329F190DED7011C9154DF112312
:100BC000F9F00FB6F8940F92D7011596ED91FC91BC
:100BD000169706811781C80102960FDB8091FD06EA
:100BE00081508093FD068091FE0681508093FE0621
:100BF0000F900FBEF8018789908D8ADAC80188DAD4
:100C000088818230A0F264DCD2CF8091F706811116
:100C100013C08091F90690E0FC01EE0FFF1FEE0F6C
:100C2000FF1FEE0FFF1F8E0F9F1FFC01E95DF84FA6
:100C30008081882329F01BC081E08093F506089508
:100C40008091F90681508093F9068091F90690E031
:100C5000FC01EE0FFF1FEE0FFF1FEE0FFF1F8E0FA9
:100C60009F1FFC01E95DF84F8081882349F3809143
:100C7000F90690E09C01220F331F220F331F220F31
:100C8000331F280F391FD901A95DB84F1196ED9177
:100C9000FC9112970280F381E02D1296FC93EE9363
:100CA0001197265D384FE217F30729F4228133812B
:100CB000FD0132832183FC01EE0FFF1FEE0FFF1FAA
:100CC000EE0FFF1F8E0F9F1FFC01E95DF84F0180A3
:100CD000F281E02D8681978190934C0780934B079A
:100CE0000895DC0101C06D9341505040E0F7089534
:100CF000FB01DC014150504048F001900D92002072
:100D0000C9F701C01D9241505040E0F70895F89492
:020D1000FFCF13
:100D1200FFFF42656C745365635461736B00494411
:040D22004C4500003C
:00000001FF
