S01100004D6F746F72546573742E7372656362
S113000045C0000060C000005EC000005CC000008D
S11300105AC0000058C0000056C0000054C0000080
S113002052C0000050C000004EC000004CC0000090
S11300304AC00000F4C2000046C0000044C00000F2
S113004042C0000040C000003EC000003CC00000B0
S11300503AC0000038C0000036C0000034C00000C0
S113006032C0000030C000002EC000002CC00000D0
S11300702AC0000028C0000026C0000024C00000E0
S113008022C0000020C000001EC0000011241FBEBA
S1130090CFEFD0E4DEBFCDBF11E0A0E0B1E0EEEFE2
S11300A0FCE000E00BBF02C007900D92A431B10741
S11300B0D9F727E0A4E1B1E001C01D92AD34B20745
S11300C0E1F74BD11AC69CCFCF93DF93EC01FAD35F
S11300D02091140130911501CE01820F931F8C3DA4
S11300E045E0940758F42817390758F4E901CA5E23
S11300F0DE4F909315018093140105C0C0E0D0E059
S113010002C0C0E0D0E0A5D4CE01DF91CF91089524
S11301100895FC010396928381832FEF3FEF34838C
S11301202383968385839087878310820895FC01B7
S1130130118610860895CF93DF93FC01DB012181A2
S11301403281E9018A819B8113969C938E93129745
S11301508181928115969C938E9314978A819B81B9
S1130160EC017D836C83E9017B836A837283618301
S11301701996FC93EE93189780818F5F8083DF91AB
S1130180CF910895CF93DF93EB01488159814F3F7D
S11301902FEF520731F4DC011796ED91FC9118977B
S11301A017C0FC013396DC0115962D913C911697EE
S11301B0D9012D913C914217530750F00280F381ED
S11301C0E02DA281B3812D913C9142175307B0F7E2
S11301D0A281B381BB83AA831596DC93CE93149733
S11301E0FD83EC83D383C28399878887FC012081B4
S11301F02F5F2083DF91CF910895FC01A281B38109
S11302008481958115969C938E931497A481B581CE
S11302108281938113969C938E931297A085B185C6
S113022011968D919C9112978E179F0731F48481BA
S1130230958112969C938E931197118610868C91BA
S113024081508C93089580914C07823019F083304B
S113025089F020C081E082B98FEC97E00197F1F733
S113026000C0000012B88FEC97E00197F1F700C0CE
S1130270000010C083E082B98FEC97E00197F1F79A
S113028000C0000082E082B98FEC97E00197F1F79B
S113029000C0000080914C07813051F028F082307A
S11302A0F1F0833041F1089581E080934C07089583
S11302B089B190E08095909583709927019719F4FE
S11302C082E080934C0789B190E08095909583708B
S11302D099270297D9F483E080934C07089589B154
S11302E090E08095909583709927019779F081E04B
S11302F080934C07089589B190E080959095837020
S11303009927029719F081E080934C070895109281
S11303104C0799DF81E090E01DD4FBCFAF92BF92F0
S1130320CF92DF92EF92FF920F93A12CB12CC12CAC
S1130330D12CE12CF12C082F20E030E045E550E0F1
S113034062E071E087E891E0A1D10F91FF90EF9016
S1130350DF90CF90BF90AF9008958FEF81B912B81E
S11303601AB88BB981E0DADF84D280E090E0089596
S113037031E1FC013083319722E220833197A3E3FA
S1130380A0833197608331977083319710823197BE
S113039060E8608331971082319762E0608331971F
S11303A063E06083319764E06083319765E0608344
S11303B0319766E06083319767E06083319768E046
S11303C06083319769E06083319760E1608331979E
S11303D03083319732E13083319733E13083319781
S11303E034E13083319735E13083319736E130831E
S11303F0319737E13083319738E13083319739E1F0
S11304003083319730E23083319731E23083319752
S11304102083319723E2208331974083319750839F
S1130420319726E22083319727E22083319728E20F
S11304302083319729E22083319720E32083319769
S113044021E3208386970895109289008CE7809396
S113045088008BE080938100EFE6F0E08081826089
S11304608083A0914A07B0914B07CD91CDBFDD9118
S1130470DEBFFF91EF91DF91CF91BF91AF919F913B
S11304808F917F916F915F914F913F912F911F9128
S11304900F91FF90EF90DF90CF90BF90AF909F901F
S11304A08F907F906F905F904F903F902F901F9010
S11304B00F900FBE0F90089581E008950F920FB62C
S11304C0F8940F921F9211242F923F924F925F92B1
S11304D06F927F928F929F92AF92BF92CF92DF9250
S11304E0EF92FF920F931F932F933F934F935F933A
S11304F06F937F938F939F93AF93BF93CF93DF9328
S1130500EF93FF93A0914A07B0914B070DB60D925C
S11305100EB60D9270D3A0914A07B0914B07CD91BE
S1130520CDBFDD91DEBFFF91EF91DF91CF91BF9100
S1130530AF919F918F917F916F915F914F913F9177
S11305402F911F910F91FF90EF90DF90CF90BF906C
S1130550AF909F908F907F906F905F904F903F905F
S11305602F901F900F900FBE0F9008950F920FB60B
S1130570F8940F921F9211242F923F924F925F9200
S11305806F927F928F929F92AF92BF92CF92DF929F
S1130590EF92FF920F931F932F933F934F935F9389
S11305A06F937F938F939F93AF93BF93CF93DF9377
S11305B0EF93FF93A0914A07B0914B070DB60D92AC
S11305C00EB60D9285D117D3A0914A07B0914B076F
S11305D0CD91CDBFDD91DEBFFF91EF91DF91CF9142
S11305E0BF91AF919F918F917F916F915F914F9147
S11305F03F912F911F910F91FF90EF90DF90CF903B
S1130600BF90AF909F908F907F906F905F904F902E
S11306103F902F901F900F900FBE0F900895A6DF6C
S11306201895CF93DF93EC01E0914A07F0914B07C3
S1130630938382838091FA069091FB06C817D907A9
S113064060F460914A0770914B0780911007909174
S113065011076E5F7F4F96DD16C060914A07709157
S11306604B0780911207909113076E5F7F4F8ADDCD
S11306708091000190910101C817D90720F4D0930B
S11306800101C0930001DF91CF9108954F925F92D1
S11306906F927F928F929F92AF92BF92CF92DF928E
S11306A0EF92FF920F931F93CF93DF935C014B0163
S11306B03A01290181E290E007DDEC01892B09F47C
S11306C0C6C0C114D10409F0BEC0C301FDDC988FBB
S11306D08F8B009719F4CE011BDDB9C0A30165EA25
S11306E070E0F5D29301215031098F89988D3C0136
S11306F0620E731E48E050E0B401CE014996EED27A
S113070018A2102F043008F013E01E8B6E0182E053
S1130710C80ED11CC6010BDDCE010C9608DDD987AD
S1130720C88784E090E0811B91099D878C87DB8BCF
S1130730CA8BA201B501C3011BDE99838883E1142E
S1130740F10419F0F701D183C0830FB6F8940F9226
S11307508091FC068F5F8093FC0680914A079091FC
S11307604B07892B69F5D0934B07C0934A078091B7
S1130770FC068130A1F586E297E0CBDC8FE297E0BE
S1130780C8DC88E397E0C5DC81E497E0C2DC8DE156
S113079097E0BFDC84E197E0BCDC87E097E0B9DC5C
S11307A08EEF96E0B6DC8DE197E09093130780938B
S11307B0120784E197E090931107809310070FC00C
S11307C08091F70681110BC0E0914A07F0914B0725
S11307D08689081720F0D0934B07C0934A078E8967
S11307E09091F906981710F48093F9069091F20607
S11307F09F5F9093F2069091F806981710F48093F7
S1130800F80690E09C01220F331F220F331F220FA2
S1130810331F820F931FB6018A5D984F8CDC0F90B3
S11308200FBE8091F706882351F0E0914A07F091BA
S11308304B078689801728F441DE81E009C081E0F6
S113084007C081E005C0D88ECF8AC60147CF8FEF9D
S1130850DF91CF911F910F91FF90EF90DF90CF9098
S1130860BF90AF909F908F907F906F905F904F90CC
S11308700895AF92BF92CF92DF92EF92FF920F93BF
S1130880A12CB12CC12CD12CE12CF12C00E020E0C6
S113089030E045E550E06FE071E085EC95E0F6DE90
S11308A0813041F4F8948093F7061092FB0610927D
S11308B0FA06CADD0F91FF90EF90DF90CF90BF90C2
S11308C0AF9008958091F6068F5F8093F6060895A1
S11308D00F931F93CF93DF938091F6068111AFC0DE
S11308E08091FA069091FB0601969093FB06809303
S11308F0FA068091FA069091FB06892B99F580916E
S1130900120790911307209110073091110730932B
S11309101307209312079093110780931007809177
S1130920F3068F5F8093F306E0911207F0911307AB
S11309308081811107C08FEF9FEF90930101809315
S1130940000110C0E0911207F09113070580F681B1
S1130950E02D0680F781E02D82819381909301013F
S1130960809300012091FA063091FB0680910001EA
S1130970909101012817390708F466C0E091120725
S1130980F09113078081882399F0E0911207F09188
S113099013070580F681E02DC681D7818A819B816A
S11309A02091FA063091FB0628173907F8F419C08C
S11309B08FEF9FEF909301018093000145C0E09178
S11309C01207F09113070580F681E02DC681D781C7
S11309D08A819B812091FA063091FB0628173907FA
S11309E028F490930101809300012EC08E010E5FC4
S11309F01F4FC80102DC8C899D89892B19F0CE0117
S1130A000C96FBDB2E898091F806821710F4209354
S1130A10F80630E0C901880F991F880F991F880FC5
S1130A20991F820F931FB8018A5D984F84DBE09170
S1130A301207F091130780818111C1CFB9CF809142
S1130A40F5068F5F8093F506DF91CF911F910F918B
S1130A500895CF92DF92EF92FF920F931F93CF935B
S1130A60DF930FB6F8940F928091F606815080932D
S1130A70F6068091F60681115FC08091FC06811113
S1130A802FC05DC0D7011596ED91FC911697C681D4
S1130A90D781CE010C96B1DB8E010E5F1F4FC801CA
S1130AA0ACDB2E898091F806821710F42093F806A7
S1130AB030E0C901880F991F880F991F880F991F6B
S1130AC0820F931FB8018A5D984F35DBE0914A0786
S1130AD0F0914B079E898689981758F0DC2C09C041
S1130AE0D12C0F2EF7E0EF2EF7E0FF2EF02DCC24C3
S1130AF0C394F70180818111C5CF8091F5068823C5
S1130B0079F08091F506882391F0E2DE8091F50674
S1130B1081508093F5068091F5068111F6CF07C0C8
S1130B20F1E0DF1621F08091F406813039F410925F
S1130B30F406C4DC81E003C080E001C080E00F90D3
S1130B400FBEDF91CF911F910F91FF90EF90DF9037
S1130B50CF900895CF93DF93EC01892B91F0B2DE0F
S1130B608091FA069091FB06C80FD91F80914A071D
S1130B7090914B07029641DBCE0153DD6ADF811170
S1130B8001C09CDCDF91CF9108950F2EFEEFEF2E74
S1130B90F6E0FF2EF02DC6E2D7E08091FD06882313
S1130BA029F190DED7011C9154DF1123F9F00FB61F
S1130BB0F8940F92D7011596ED91FC911697068142
S1130BC01781C801029619DB8091FC06815080933D
S1130BD0FC068091FD0681508093FD060F900FBEA8
S1130BE0F8018789908D94DAC80192DA888182307D
S1130BF0A0F264DCD2CF8091F606811113C08091FB
S1130C00F80690E0FC01EE0FFF1FEE0FFF1FEE0F42
S1130C10FF1F8E0F9F1FFC01EA5DF84F8081882320
S1130C2029F01BC081E08093F40608958091F806B2
S1130C3081508093F8068091F80690E0FC01EE0F55
S1130C40FF1FEE0FFF1FEE0FFF1F8E0F9F1FFC01F4
S1130C50EA5DF84F8081882349F38091F80690E09B
S1130C609C01220F331F220F331F220F331F280F23
S1130C70391FD901AA5DB84F1196ED91FC911297D5
S1130C800280F381E02D1296FC93EE931197275D79
S1130C90384FE217F30729F422813381FD013283AF
S1130CA02183FC01EE0FFF1FEE0FFF1FEE0FFF1F4E
S1130CB08E0F9F1FFC01EA5DF84F0180F281E02D49
S1130CC08681978190934B0780934A070895DC01AE
S1130CD001C06D9341505040E0F70895FB01DC01E1
S1130CE04150504048F001900D920020C9F701C0D6
S1110CF01D9241505040E0F70895F894FFCF54
S1130CFEFFFF4D6F746F725365635461736B0049DC
S1070D0E444C450008
S9030000FC
