:1000000045C0000060C000005EC000005CC0000091
:100010005AC0000058C0000056C0000054C0000084
:1000200052C0000050C000004EC000004CC0000094
:100030004AC0000022C3000046C0000044C00000C7
:1000400042C0000040C000003EC000003CC00000B4
:100050003AC0000038C0000036C0000034C00000C4
:1000600032C0000030C000002EC000002CC00000D4
:100070002AC0000028C0000026C0000024C00000E4
:1000800022C0000020C000001EC0000011241FBEBE
:10009000CFEFD0E4DEBFCDBF11E0A0E0B1E0EAE5F4
:1000A000FDE000E00BBF02C007900D92A631B10742
:1000B000D9F727E0A6E1B1E001C01D92A235B20751
:1000C000E1F7B8D048C69CCF813081F0E1ECF0E098
:1000D000808188618083E2ECF0E0808186608083AB
:1000E00083E38093C4001092C5000895E9ECF0E02A
:1000F000808188618083EAECF0E080818660808383
:1001000083E38093CC001092CD000895613041F0DC
:10011000E0ECF0E0908195FFFDCF8093C60008955C
:10012000E8ECF0E0908195FFFDCF8093CE0008953C
:1001300080915107813031F018F0823031F026C0C3
:100140001BB824C081E08BB921C0809116018E7F3D
:1001500080931601329905C0809118018095809393
:100160001801339905C0809117018095809317017C
:1001700080911801882311F0129A01C01298809181
:100180001701882311F0139A01C013988091510729
:10019000813041F018F0823081F0089581E0809341
:1001A00051070895349911C08091160181608093A0
:1001B000160182E0809351070895309906C0319965
:1001C00004C012B881E0809351070895109251073E
:1001D000C0ECD0E010E801E0ABDF888185FF06C00D
:1001E00060E08091160192DF02B901C012B982E38A
:1001F00090E0DED4F1CFAF92BF92CF92DF92EF9238
:10020000FF920F93A12CB12CC12CD12CE12CF12CFD
:10021000082F20E030E045E550E062E071E086EE36
:1002200090E062D20F91FF90EF90DF90CF90BF905F
:10023000AF90089517B88FEF88B981B912B880E0F0
:1002400043DF81E0D8DF43D380E090E00895CF938F
:10025000DF93EC0165D32091190130911A01CE0191
:10026000820F931F8C3D45E0940758F428173907F7
:1002700058F4E901C55EDE4F90931A01809319018D
:1002800005C0C0E0D0E002C0C0E0D0E010D4CE0194
:10029000DF91CF9108950895FC01039692838183A5
:1002A0002FEF3FEF34832383968385839087878363
:1002B00010820895FC01118610860895CF93DF9374
:1002C000FC01DB0121813281E9018A819B81139646
:1002D0009C938E9312978181928115969C938E9315
:1002E00014978A819B81EC017D836C83E9017B8378
:1002F0006A83728361831996FC93EE9318978081C9
:100300008F5F8083DF91CF910895CF93DF93EB01CF
:10031000488159814F3F2FEF520731F4DC01179686
:10032000ED91FC91189717C0FC013396DC011596EE
:100330002D913C911697D9012D913C91421753076D
:1003400050F00280F381E02DA281B3812D913C9188
:1003500042175307B0F7A281B381BB83AA831596D6
:10036000DC93CE931497FD83EC83D383C283998768
:100370008887FC0120812F5F2083DF91CF91089532
:10038000FC01A281B3818481958115969C938E9303
:100390001497A481B5818281938113969C938E9347
:1003A0001297A085B18511968D919C9112978E1709
:1003B0009F0731F48481958112969C938E931197B7
:1003C000118610868C9181508C93089531E1FC0147
:1003D0003083319722E220833197A3E3A0833197C2
:1003E00060833197708331971082319760E8608322
:1003F00031971082319762E06083319763E06083C8
:10040000319764E06083319765E06083319766E0FF
:100410006083319767E06083319768E0608331974C
:1004200069E06083319760E1608331973083319771
:1004300032E13083319733E13083319734E13083D7
:10044000319735E13083319736E13083319737E1A9
:100450003083319738E13083319739E130833197F8
:1004600030E23083319731E2308331972083319706
:1004700023E220833197408331975083319726E2DE
:100480002083319727E22083319728E22083319718
:1004900029E22083319720E32083319721E32083D1
:1004A00086970895109289008CE7809388008BE0EE
:1004B00080938100EFE6F0E0808182608083A091EC
:1004C0004F07B0915007CD91CDBFDD91DEBFFF91B9
:1004D000EF91DF91CF91BF91AF919F918F917F91DC
:1004E0006F915F914F913F912F911F910F91FF90CD
:1004F000EF90DF90CF90BF90AF909F908F907F90C4
:100500006F905F904F903F902F901F900F900FBE75
:100510000F90089581E008950F920FB6F8940F920E
:100520001F9211242F923F924F925F926F927F926F
:100530008F929F92AF92BF92CF92DF92EF92FF92F3
:100540000F931F932F933F934F935F936F937F93DB
:100550008F939F93AF93BF93CF93DF93EF93FF93CB
:10056000A0914F07B09150070DB60D920EB60D92A7
:1005700070D3A0914F07B0915007CD91CDBFDD91C1
:10058000DEBFFF91EF91DF91CF91BF91AF919F912E
:100590008F917F916F915F914F913F912F911F911B
:1005A0000F91FF90EF90DF90CF90BF90AF909F9012
:1005B0008F907F906F905F904F903F902F901F9003
:1005C0000F900FBE0F9008950F920FB6F8940F92F0
:1005D0001F9211242F923F924F925F926F927F92BF
:1005E0008F929F92AF92BF92CF92DF92EF92FF9243
:1005F0000F931F932F933F934F935F936F937F932B
:100600008F939F93AF93BF93CF93DF93EF93FF931A
:10061000A0914F07B09150070DB60D920EB60D92F6
:1006200085D117D3A0914F07B0915007CD91CDBF81
:10063000DD91DEBFFF91EF91DF91CF91BF91AF913F
:100640009F918F917F916F915F914F913F912F91EA
:100650001F910F91FF90EF90DF90CF90BF90AF90E0
:100660009F908F907F906F905F904F903F902F90D2
:100670001F900F900FBE0F900895A6DF1895CF938F
:10068000DF93EC01E0914F07F09150079383828351
:100690008091FF0690910007C817D90760F4609118
:1006A0004F077091500780911507909116076E5F64
:1006B0007F4F2BDE16C060914F07709150078091DD
:1006C0001707909118076E5F7F4F1FDE8091000122
:1006D00090910101C817D90720F4D0930101C0936C
:1006E0000001DF91CF9108954F925F926F927F92B8
:1006F0008F929F92AF92BF92CF92DF92EF92FF9232
:100700000F931F93CF93DF935C014B013A012901B3
:1007100081E290E09CDDEC01892B09F4C6C0C11494
:10072000D10409F0BEC0C30192DD988F8F8B009772
:1007300019F4CE01B0DDB9C0A30165EA70E0F5D2CD
:100740009301215031098F89988D3C01620E731EEF
:1007500048E050E0B401CE014996EED218A2102F25
:10076000043008F013E01E8B6E0182E0C80ED11C2D
:10077000C601A0DDCE010C969DDDD987C88784E037
:1007800090E0811B91099D878C87DB8BCA8BA2012E
:10079000B501C3011BDE99838883E114F10419F0CC
:1007A000F701D183C0830FB6F8940F9280910107AF
:1007B0008F5F8093010780914F0790915007892B9D
:1007C00069F5D0935007C0934F078091010781309E
:1007D000A1F58BE297E060DD84E397E05DDD8DE3DA
:1007E00097E05ADD86E497E057DD82E297E054DD3A
:1007F00089E197E051DD8CE097E04EDD83E097E002
:100800004BDD82E297E0909318078093170789E108
:1008100097E090931607809315070FC08091FC0610
:1008200081110BC0E0914F07F0915007868908179E
:1008300020F0D0935007C0934F078E899091FE0609
:10084000981710F48093FE069091F7069F5F90939F
:10085000F7069091FD06981710F48093FD0690E03E
:100860009C01220F331F220F331F220F331F820FD1
:10087000931FB601855D984F21DD0F900FBE8091CB
:10088000FC06882351F0E0914F07F09150078689CC
:10089000801728F441DE81E009C081E007C081E0D3
:1008A00005C0D88ECF8AC60147CF8FEFDF91CF9199
:1008B0001F910F91FF90EF90DF90CF90BF90AF907E
:1008C0009F908F907F906F905F904F900895AF9220
:1008D000BF92CF92DF92EF92FF920F93A12CB12C97
:1008E000C12CD12CE12CF12C00E020E030E045E5DA
:1008F00050E060E171E083EF95E0F6DE813041F495
:10090000F8948093FC06109200071092FF06CADD4F
:100910000F91FF90EF90DF90CF90BF90AF90089530
:100920008091FB068F5F8093FB0608950F931F93C2
:10093000CF93DF938091FB068111AFC08091FF06BA
:10094000909100070196909300078093FF06809195
:10095000FF0690910007892B99F5809117079091D8
:100960001807209115073091160730931807209328
:10097000170790931607809315078091F8068F5FED
:100980008093F806E0911707F09118078081811194
:1009900007C08FEF9FEF909301018093000110C07B
:1009A000E0911707F09118070580F681E02D068089
:1009B000F781E02D82819381909301018093000162
:1009C0002091FF0630910007809100019091010174
:1009D0002817390708F466C0E0911707F091180747
:1009E0008081882399F0E0911707F091180705801E
:1009F000F681E02DC681D7818A819B812091FF06F7
:100A00003091000728173907F8F419C08FEF9FEFCE
:100A1000909301018093000145C0E0911707F09188
:100A200018070580F681E02DC681D7818A819B81D8
:100A30002091FF06309100072817390728F490937A
:100A40000101809300012EC08E010E5F1F4FC8016F
:100A500097DC8C899D89892B19F0CE010C9690DC4E
:100A60002E898091FD06821710F42093FD0630E058
:100A7000C901880F991F880F991F880F991F820F2E
:100A8000931FB801855D984F19DCE0911707F0912D
:100A9000180780818111C1CFB9CF8091FA068F5F8D
:100AA0008093FA06DF91CF911F910F910895CF9215
:100AB000DF92EF92FF920F931F93CF93DF930FB6C6
:100AC000F8940F928091FB0681508093FB068091F1
:100AD000FB0681115FC08091010781112FC05DC0AD
:100AE000D7011596ED91FC911697C681D781CE015D
:100AF0000C9646DC8E010E5F1F4FC80141DC2E892B
:100B00008091FD06821710F42093FD0630E0C901A4
:100B1000880F991F880F991F880F991F820F931FA5
:100B2000B801855D984FCADBE0914F07F0915007FF
:100B30009E898689981758F0DC2C09C0D12C0F2E7D
:100B4000FCE0EF2EF7E0FF2EF02DCC24C394F7014C
:100B500080818111C5CF8091FA06882379F0809138
:100B6000FA06882391F0E2DE8091FA0681508093A4
:100B7000FA068091FA068111F6CF07C0F1E0DF1680
:100B800021F08091F906813039F41092F906C4DC25
:100B900081E003C080E001C080E00F900FBEDF91D4
:100BA000CF911F910F91FF90EF90DF90CF9008951C
:100BB000CF93DF93EC01892B91F0B2DE8091FF0699
:100BC00090910007C80FD91F80914F07909150074F
:100BD0000296D6DBCE0153DD6ADF811101C09CDCB9
:100BE000DF91CF9108950F2EF3E0EF2EF7E0FF2E67
:100BF000F02DCBE2D7E080910207882329F190DE27
:100C0000D7011C9154DF1123F9F00FB6F8940F921D
:100C1000D7011596ED91FC91169706811781C801B1
:100C20000296AEDB8091010781508093010780918D
:100C300002078150809302070F900FBEF801878949
:100C4000908D29DBC80127DB88818230A0F264DC2B
:100C5000D2CF8091FB06811113C08091FD0690E0F8
:100C6000FC01EE0FFF1FEE0FFF1FEE0FFF1F8E0F99
:100C70009F1FFC01E55DF84F8081882329F01BC090
:100C800081E08093F90608958091FD06815080935C
:100C9000FD068091FD0690E0FC01EE0FFF1FEE0FB8
:100CA000FF1FEE0FFF1F8E0F9F1FFC01E55DF84F2A
:100CB0008081882349F38091FD0690E09C01220FFA
:100CC000331F220F331F220F331F280F391FD90163
:100CD000A55DB84F1196ED91FC9112970280F381BA
:100CE000E02D1296FC93EE931197225D384FE21798
:100CF000F30729F422813381FD0132832183FC0132
:100D0000EE0FFF1FEE0FFF1FEE0FFF1F8E0F9F1F37
:100D1000FC01E55DF84F0180F281E02D868197812D
:100D20009093500780934F070895DC0101C06D93A5
:100D300041505040E0F70895FB01DC014150504024
:100D400048F001900D920020C9F701C01D9241505A
:0A0D50005040E0F70895F894FFCF3B
:100D5A00FFFF4D61737465725365635461736B0071
:060D6A0049444C45000065
:00000001FF
